{
  "contractName": "Election",
  "abi": [
    {
      "inputs": [],
      "payable": false,
      "stateMutability": "nonpayable",
      "type": "constructor"
    },
    {
      "anonymous": false,
      "inputs": [
        {
          "indexed": false,
          "internalType": "address",
          "name": "_voterAddress",
          "type": "address"
        }
      ],
      "name": "voteCasted",
      "type": "event"
    },
    {
      "anonymous": false,
      "inputs": [
        {
          "indexed": true,
          "internalType": "uint256",
          "name": "_candidateId",
          "type": "uint256"
        }
      ],
      "name": "votedEvent",
      "type": "event"
    },
    {
      "constant": true,
      "inputs": [
        {
          "internalType": "uint256",
          "name": "",
          "type": "uint256"
        }
      ],
      "name": "candidates",
      "outputs": [
        {
          "internalType": "uint256",
          "name": "id",
          "type": "uint256"
        },
        {
          "internalType": "string",
          "name": "name",
          "type": "string"
        },
        {
          "internalType": "string",
          "name": "partyName",
          "type": "string"
        },
        {
          "internalType": "uint256",
          "name": "voteCount",
          "type": "uint256"
        }
      ],
      "payable": false,
      "stateMutability": "view",
      "type": "function"
    },
    {
      "constant": true,
      "inputs": [],
      "name": "candidatesCount",
      "outputs": [
        {
          "internalType": "uint256",
          "name": "",
          "type": "uint256"
        }
      ],
      "payable": false,
      "stateMutability": "view",
      "type": "function"
    },
    {
      "constant": true,
      "inputs": [],
      "name": "endTime",
      "outputs": [
        {
          "internalType": "uint256",
          "name": "",
          "type": "uint256"
        }
      ],
      "payable": false,
      "stateMutability": "view",
      "type": "function"
    },
    {
      "constant": true,
      "inputs": [],
      "name": "startTime",
      "outputs": [
        {
          "internalType": "uint256",
          "name": "",
          "type": "uint256"
        }
      ],
      "payable": false,
      "stateMutability": "view",
      "type": "function"
    },
    {
      "constant": true,
      "inputs": [],
      "name": "topic",
      "outputs": [
        {
          "internalType": "string",
          "name": "",
          "type": "string"
        }
      ],
      "payable": false,
      "stateMutability": "view",
      "type": "function"
    },
    {
      "constant": true,
      "inputs": [],
      "name": "getCurrentVoter",
      "outputs": [
        {
          "internalType": "address",
          "name": "",
          "type": "address"
        },
        {
          "internalType": "string",
          "name": "",
          "type": "string"
        },
        {
          "internalType": "bool",
          "name": "",
          "type": "bool"
        },
        {
          "internalType": "uint256",
          "name": "",
          "type": "uint256"
        }
      ],
      "payable": false,
      "stateMutability": "view",
      "type": "function"
    },
    {
      "constant": true,
      "inputs": [
        {
          "internalType": "uint256",
          "name": "_candidateId",
          "type": "uint256"
        }
      ],
      "name": "getVoteCountFor",
      "outputs": [
        {
          "internalType": "uint256",
          "name": "",
          "type": "uint256"
        },
        {
          "internalType": "string",
          "name": "",
          "type": "string"
        }
      ],
      "payable": false,
      "stateMutability": "view",
      "type": "function"
    },
    {
      "constant": false,
      "inputs": [
        {
          "internalType": "uint256",
          "name": "_candidateId",
          "type": "uint256"
        }
      ],
      "name": "vote",
      "outputs": [],
      "payable": false,
      "stateMutability": "nonpayable",
      "type": "function"
    },
    {
      "constant": true,
      "inputs": [],
      "name": "getWinningCandidate",
      "outputs": [
        {
          "internalType": "uint256",
          "name": "",
          "type": "uint256"
        },
        {
          "internalType": "string",
          "name": "",
          "type": "string"
        },
        {
          "internalType": "uint256",
          "name": "",
          "type": "uint256"
        }
      ],
      "payable": false,
      "stateMutability": "view",
      "type": "function"
    }
  ],
  "bytecode": "0x60806040523480156200001157600080fd5b5042600181905550607860015401600281905550604051806060016040528060278152602001620011ed6027913960009080519060200190620000569291906200043d565b506040518060800160405280600181526020016040518060400160405280600c81526020017f526168756c2047616e646869000000000000000000000000000000000000000081525081526020016040518060400160405280600881526020017f436f6e677265737300000000000000000000000000000000000000000000000081525081526020016000815250600560006001815260200190815260200160002060008201518160000155602082015181600101908051906020019062000120929190620004c4565b5060408201518160020190805190602001906200013f929190620004c4565b50606082015181600301559050506040518060800160405280600281526020016040518060400160405280600d81526020017f4e6172656e647261204d6f64690000000000000000000000000000000000000081525081526020016040518060400160405280600381526020017f424a50000000000000000000000000000000000000000000000000000000000081525081526020016000815250600560006002815260200190815260200160002060008201518160000155602082015181600101908051906020019062000216929190620004c4565b50604082015181600201908051906020019062000235929190620004c4565b50606082015181600301559050506040518060800160405280600381526020016040518060400160405280600f81526020017f417276696e64204b656a726977616c000000000000000000000000000000000081525081526020016040518060400160405280600381526020017f41415000000000000000000000000000000000000000000000000000000000008152508152602001600081525060056000600381526020019081526020016000206000820151816000015560208201518160010190805190602001906200030c929190620004c4565b5060408201518160020190805190602001906200032b929190620004c4565b50606082015181600301559050506040518060800160405280600481526020016040518060400160405280600e81526020017f416b68696c65736820596164617600000000000000000000000000000000000081525081526020016040518060400160405280600281526020017f535000000000000000000000000000000000000000000000000000000000000081525081526020016000815250600560006004815260200190815260200160002060008201518160000155602082015181600101908051906020019062000402929190620004c4565b50604082015181600201908051906020019062000421929190620004c4565b5060608201518160030155905050600460078190555062000573565b828054600181600116156101000203166002900490600052602060002090601f016020900481019282601f106200048057805160ff1916838001178555620004b1565b82800160010185558215620004b1579182015b82811115620004b057825182559160200191906001019062000493565b5b509050620004c091906200054b565b5090565b828054600181600116156101000203166002900490600052602060002090601f016020900481019282601f106200050757805160ff191683800117855562000538565b8280016001018555821562000538579182015b82811115620005375782518255916020019190600101906200051a565b5b5090506200054791906200054b565b5090565b6200057091905b808211156200056c57600081600090555060010162000552565b5090565b90565b610c6a80620005836000396000f3fe608060405234801561001057600080fd5b50600436106100935760003560e01c8063650e4b0311610066578063650e4b031461022357806378e97925146102eb5780638dc2755c14610309578063bf63a577146103b7578063f927cc291461043a57610093565b80630121b93f146100985780632d35a8a2146100c65780633197cbb6146100e45780633477ee2e14610102575b600080fd5b6100c4600480360360208110156100ae57600080fd5b81019080803590602001909291905050506104cb565b005b6100ce610650565b6040518082815260200191505060405180910390f35b6100ec610656565b6040518082815260200191505060405180910390f35b61012e6004803603602081101561011857600080fd5b810190808035906020019092919050505061065c565b604051808581526020018060200180602001848152602001838103835286818151815260200191508051906020019080838360005b8381101561017e578082015181840152602081019050610163565b50505050905090810190601f1680156101ab5780820380516001836020036101000a031916815260200191505b50838103825285818151815260200191508051906020019080838360005b838110156101e45780820151818401526020810190506101c9565b50505050905090810190601f1680156102115780820380516001836020036101000a031916815260200191505b50965050505050505060405180910390f35b61022b6107bc565b604051808573ffffffffffffffffffffffffffffffffffffffff1673ffffffffffffffffffffffffffffffffffffffff1681526020018060200184151515158152602001838152602001828103825285818151815260200191508051906020019080838360005b838110156102ad578082015181840152602081019050610292565b50505050905090810190601f1680156102da5780820380516001836020036101000a031916815260200191505b509550505050505060405180910390f35b6102f361095a565b6040518082815260200191505060405180910390f35b6103356004803603602081101561031f57600080fd5b8101908080359060200190929190505050610960565b6040518083815260200180602001828103825283818151815260200191508051906020019080838360005b8381101561037b578082015181840152602081019050610360565b50505050905090810190601f1680156103a85780820380516001836020036101000a031916815260200191505b50935050505060405180910390f35b6103bf610a33565b6040518080602001828103825283818151815260200191508051906020019080838360005b838110156103ff5780820151818401526020810190506103e4565b50505050905090810190601f16801561042c5780820380516001836020036101000a031916815260200191505b509250505060405180910390f35b610442610ad1565b6040518084815260200180602001838152602001828103825284818151815260200191508051906020019080838360005b8381101561048e578082015181840152602081019050610473565b50505050905090810190601f1680156104bb5780820380516001836020036101000a031916815260200191505b5094505050505060405180910390f35b600460003373ffffffffffffffffffffffffffffffffffffffff1673ffffffffffffffffffffffffffffffffffffffff16815260200190815260200160002060020160009054906101000a900460ff161561052557600080fd5b60036000828152602001908152602001600020600081548092919060010191905055506001600460003373ffffffffffffffffffffffffffffffffffffffff1673ffffffffffffffffffffffffffffffffffffffff16815260200190815260200160002060020160006101000a81548160ff02191690831515021790555080600460003373ffffffffffffffffffffffffffffffffffffffff1673ffffffffffffffffffffffffffffffffffffffff168152602001908152602001600020600301819055507f7fe1f3a58eee874cedc684b4668fe1a8e0762aba9fb2f44a7205c15d6a04a95c33604051808273ffffffffffffffffffffffffffffffffffffffff1673ffffffffffffffffffffffffffffffffffffffff16815260200191505060405180910390a150565b60075481565b60025481565b6005602052806000526040600020600091509050806000015490806001018054600181600116156101000203166002900480601f01602080910402602001604051908101604052809291908181526020018280546001816001161561010002031660029004801561070e5780601f106106e35761010080835404028352916020019161070e565b820191906000526020600020905b8154815290600101906020018083116106f157829003601f168201915b505050505090806002018054600181600116156101000203166002900480601f0160208091040260200160405190810160405280929190818152602001828054600181600116156101000203166002900480156107ac5780601f10610781576101008083540402835291602001916107ac565b820191906000526020600020905b81548152906001019060200180831161078f57829003601f168201915b5050505050908060030154905084565b600060606000806107cb610bf5565b600460003373ffffffffffffffffffffffffffffffffffffffff1673ffffffffffffffffffffffffffffffffffffffff1681526020019081526020016000206040518060800160405290816000820160009054906101000a900473ffffffffffffffffffffffffffffffffffffffff1673ffffffffffffffffffffffffffffffffffffffff1673ffffffffffffffffffffffffffffffffffffffff168152602001600182018054600181600116156101000203166002900480601f0160208091040260200160405190810160405280929190818152602001828054600181600116156101000203166002900480156109045780601f106108d957610100808354040283529160200191610904565b820191906000526020600020905b8154815290600101906020018083116108e757829003601f168201915b505050505081526020016002820160009054906101000a900460ff161515151581526020016003820154815250509050806000015181602001518260400151836060015182925094509450945094505090919293565b60015481565b60006060600360008481526020019081526020016000205460056000858152602001908152602001600020600101808054600181600116156101000203166002900480601f016020809104026020016040519081016040528092919081815260200182805460018160011615610100020316600290048015610a235780601f106109f857610100808354040283529160200191610a23565b820191906000526020600020905b815481529060010190602001808311610a0657829003601f168201915b5050505050905091509150915091565b60008054600181600116156101000203166002900480601f016020809104026020016040519081016040528092919081815260200182805460018160011615610100020316600290048015610ac95780601f10610a9e57610100808354040283529160200191610ac9565b820191906000526020600020905b815481529060010190602001808311610aac57829003601f168201915b505050505081565b6000606060008060009050600080905060008090505b600754811015610b33576003600082815260200190815260200160002054831015610b2657600360008281526020019081526020016000205492508091505b8080600101915050610ae7565b50806005600083815260200190815260200160002060010183818054600181600116156101000203166002900480601f016020809104026020016040519081016040528092919081815260200182805460018160011615610100020316600290048015610be15780601f10610bb657610100808354040283529160200191610be1565b820191906000526020600020905b815481529060010190602001808311610bc457829003601f168201915b505050505091509450945094505050909192565b6040518060800160405280600073ffffffffffffffffffffffffffffffffffffffff1681526020016060815260200160001515815260200160008152509056fea265627a7a72315820a733fd09569e6ee38cfaf21d9587846307334ebc9977566e99b195252594d3db64736f6c6343000510003257686f2073686f756c6420626520746865205072696d65204d696e69737465722832303232293f",
  "source": "pragma solidity >= 0.5.0 < 0.9.0;\r\n\r\ncontract Election{\r\n\r\n    string public topic;\r\n    uint public startTime;\r\n    uint public endTime;\r\n    struct Candidate{\r\n        // model a candidate\r\n        uint id;\r\n        string name;\r\n        string partyName;\r\n        uint voteCount;\r\n    }\r\n    struct Voter {\r\n    address voterAddress;\r\n    string name;\r\n    bool voted;\r\n    uint candidateId;\r\n  }\r\n  \r\n    // for counting votes\r\n    mapping(uint => uint) private voteCount;\r\n    // store accounts that have voted\r\n    mapping(address => Voter) private voters;\r\n    // store candidate\r\n    mapping(uint=> Candidate) public candidates;\r\n    uint private votersCount;\r\n    // store candidates Count\r\n    uint public candidatesCount;\r\n\r\n    event votedEvent (\r\n        uint indexed _candidateId\r\n    );\r\n\r\n    constructor() public\r\n    {\r\n        startTime = block.timestamp;\r\n      endTime = startTime + 2 minutes;\r\n        topic = 'Who should be the Prime Minister(2022)?';\r\n        candidates[1] = Candidate(1, 'Rahul Gandhi','Congress',0);\r\n        candidates[2] = Candidate(2, 'Narendra Modi','BJP',0);\r\n        candidates[3] = Candidate(3, 'Arvind Kejriwal','AAP',0);\r\n        candidates[4] = Candidate(4, 'Akhilesh Yadav','SP',0);\r\n        candidatesCount = 4;\r\n    }\r\n    event voteCasted(address _voterAddress);\r\n\r\n\r\n  function getCurrentVoter() public view returns (address, string memory, bool, uint) {\r\n    Voter memory voter = voters[msg.sender];\r\n    return(voter.voterAddress, voter.name, voter.voted, voter.candidateId);\r\n  }\r\n\r\n  function getVoteCountFor(uint _candidateId) public view  returns(uint, string memory) {\r\n    return (voteCount[_candidateId], candidates[_candidateId].name);\r\n  }\r\n\r\n  // main voting function takes your selected candidate id and increments their vote count \r\n  function vote(uint _candidateId) public  \r\n  {\r\n    require(!voters[msg.sender].voted);\r\n    voteCount[_candidateId]++;\r\n    voters[msg.sender].voted = true;\r\n    voters[msg.sender].candidateId = _candidateId;\r\n    emit voteCasted(msg.sender);\r\n  }\r\n  \r\n    function getWinningCandidate() public view  returns (uint, string memory, uint) {\r\n    uint maxVote = 0;\r\n    uint maxVoteCandidateId = 0;\r\n      for(uint i = 0; i<candidatesCount; i++) {\r\n        if(maxVote < voteCount[i]) {\r\n          maxVote = voteCount[i];\r\n          maxVoteCandidateId = i;\r\n        }\r\n      }  \r\n    return (maxVoteCandidateId, candidates[maxVoteCandidateId].name, maxVote);\r\n  }\r\n}\r\n// 0x52C3087e23D22078D5a81A1FD17F2dE82D317613\r\n// Election.deployed().then(function(i) { app=i;})\r\n// web3.eth.getAccounts().then(function(acc){ accounts = acc })\r\n// accounts[0] instead of web3.eth.accounts\r\n// truffle migrate --reset \r\n// truffle console\r\n// npm run dev",
  "sourcePath": "C:\\Users\\HP-PC\\Documents\\Decentralized_Voting_Application\\contracts\\Election.sol",
  "compiler": {
    "name": "solc",
    "version": "0.5.16+commit.9c3226ce.Emscripten.clang"
  },
  "schemaVersion": "3.4.4",
  "updatedAt": "2022-01-31T10:35:59.224Z",
  "networkType": "ethereum",
  "devdoc": {
    "methods": {}
  },
  "userdoc": {
    "methods": {}
  }
}